:100000000C9454000C945E000C945E000C945E0002
:100010000C945E000C945E000C945E000C945E00E8
:100020000C945E000C945E000C945E000C945E00D8
:100030000C945E000C945E000C945E000C945E00C8
:100040000C945E000C945E000C945E000C945E00B8
:100050000C945E000C945E000C945E000C945E00A8
:100060000C945E000C945E000C945E000C945E0098
:100070000C945E000C945E000C945E000C945E0088
:100080000C945E000C945E000C945E000C945E0078
:100090000C945E000C945E000C945E000C945E0068
:1000A0000C945E000C945E0011241FBECFEFCDBFF8
:1000B000DFE7DEBF0E9488000C949D000C940000D6
:1000C00080EC809367040895E0E0F4E082EC8083A4
:1000D0001482E0E4F4E08CE080831482E0E6F4E053
:1000E00084E780831482E0EAF4E0108214820895A9
:1000F00082E08093E505E0E0F9E085EF868388E023
:10010000848381E083838581816085830895089558
:10011000F8940E9464000E9478000E9487007894FE
:1001200080EC809367042FE734E89EE12150304053
:0E0130009040E1F700C00000F4CFF894FFCF3C
:00000001FF
