:100000000C9454000C9471000C9471000C947100C9
:100010000C9471000C9471000C9471000C9471009C
:100020000C9471000C9471000C9471000C9471008C
:100030000C9471000C9471000C9471000C9471007C
:100040000C9471000C9471000C9471000C9471006C
:100050000C9471000C9471000C9471000C9471005C
:100060000C9471000C9471000C9471000C9471004C
:100070000C9471000C9471000C9471000C9471003C
:100080000C9471000C9471000C9471000C9471002C
:100090000C9471000C9471000C9471000C9471001C
:1000A0000C9471000C94710011241FBECFEFCDBFD2
:1000B000DFE7DEBF10E7A0E0B0E7E0EFF3E002C06B
:1000C00005900D92A431B107D9F720E7A4E1B0E77C
:1000D00001C01D92A435B207E1F70E94BF010C9444
:1000E000F0010C94000080EC809367040895E0E038
:1000F000F4E082EC80831482E0E4F4E08CE080831E
:100100001482E0E6F4E084E780831482E0EAF4E01D
:1001100010821482089580910509807C31F08091CD
:10012000050984FF08C082E00895809105098C705C
:1001300091F383E0089581E00895809307090C947A
:100140008B00809308090C948B00FF920F931F93F0
:10015000CF93DF93F62E172F042F809307090E9469
:100160008B00CF2DD12F0C0F1D2F111DC017D107C4
:1001700049F493E090930409DF91CF911F910F917F
:10018000FF9008958991809308090E948B00EECF1B
:10019000282F207F30E1839FC0011124E09100705F
:1001A000F0910170922F9D609083E0910070F0912A
:1001B000017029602183E0910070F0910170982F07
:1001C0009D6092838960838344E0BF0187E20C9441
:1001D000A500282F207F30E1839FC0011124E091EA
:1001E0000070F0910170922F94609083E091007004
:1001F000F09101702183E0910070F0910170982FCF
:1002000094609283838344E0BF0187E20C94A5004D
:10021000807FE0910070F0910170982F946090833E
:10022000E0910070F0910170818360910070709195
:10023000017042E087E20C94A5000F931F93CF93C7
:10024000DF93DC010D900020E9F7AD014150510929
:10025000481B590B142F082FDC0130E020E060917F
:100260000070709101708A2F801B811748F0440F35
:10027000440F87E2DF91CF911F910F910C94A5005D
:100280008D91E82FE07FC0E18C9FC0011124620FA7
:10029000731F9E2F9D60EB019883C0910070D091D9
:1002A0000170C20FD31FE960E983E0910070F09103
:1002B0000170E20FF31F982F9D609283E091007010
:1002C000F0910170E20FF31F896083832C5F3F4F31
:1002D000C6CF8BE792E90197F1F700C0000080E3F9
:1002E0000E94080189E098E20197F1F700C0000040
:1002F00080E30E94080189EF90E00197F1F700C0C8
:10030000000080E30E94080189E098E20197F1F77C
:1003100000C0000080E20E94080195E89A95F1F77C
:10032000000088E20E94E90085E88A95F1F7000064
:1003300088E00E94E90095E89A95F1F7000081E0D5
:100340000E94E90085E88A95F1F7000086E00E94A6
:10035000E90095E89A95F1F700008FE00C94E90028
:1003600082E08093E505E0E0F9E08DE2868388E0B5
:10037000848381E083838581816085830895F894F7
:100380000E9477000E94B0010E9469017894C0EC3D
:10039000C09367042FE784E89EE12150804090409D
:1003A000E1F700C0000081E00E94E90089EF90E0E1
:1003B0000197F1F700C0000082E00E94E90089EF98
:1003C00090E00197F1F700C0000084EE93E80E94EE
:1003D0001D0189EF90E00197F1F700C00000D8CF30
:0403E000F894FFCFBF
:0C03E40054657374696E67203132330079
:1003F000147004704974277320576F726B696E67AD
:0404000000000000F8
:00000001FF
